22:17:52.710879 IP6 usdal2-vip-fx-103.b.aaplimg.com.https > 2806:230:2014:c466:e5ed:63f1:b813:486a.60835: Flags [F.], seq 3566405358, ack 1984526421, win 63, options [nop,nop,TS val 1365283841 ecr 3535622531], length 0
	0x0000:  de0c 9867 5e15 c4eb ff12 ee87 86dd 600f  ...g^.........`.
	0x0010:  4cbd 0020 0639 2620 0149 0a32 f000 0000  L....9&..I.2....
	0x0020:  0000 0000 0136 2806 0230 2014 c466 e5ed  .....6(..0...f..
	0x0030:  63f1 b813 486a 01bb eda3 d493 06ee 7649  c...Hj........vI
	0x0040:  7855 8011 003f 377b 0000 0101 080a 5160  xU...?7{......Q`
	0x0050:  9401 d2bd 5183                           ....Q.
22:17:52.710882 IP6 usdal2-vip-fx-103.b.aaplimg.com.https > 2806:230:2014:c466:e5ed:63f1:b813:486a.60835: Flags [P.], seq 4294967272:0, ack 1, win 63, options [nop,nop,TS val 1365283841 ecr 3535622531], length 24
	0x0000:  de0c 9867 5e15 c4eb ff12 ee87 86dd 600f  ...g^.........`.
	0x0010:  4cbd 0038 0639 2620 0149 0a32 f000 0000  L..8.9&..I.2....
	0x0020:  0000 0000 0136 2806 0230 2014 c466 e5ed  .....6(..0...f..
	0x0030:  63f1 b813 486a 01bb eda3 d493 06d6 7649  c...Hj........vI
	0x0040:  7855 8018 003f c0bc 0000 0101 080a 5160  xU...?........Q`
	0x0050:  9401 d2bd 5183 1703 0300 138f 40ed 211e  ....Q.......@.!.
	0x0060:  679d b045 e89f fb34 d1d1 ff8f 1a00       g..E...4......
22:17:52.711193 IP6 2806:230:2014:c466:e5ed:63f1:b813:486a.60835 > usdal2-vip-fx-103.b.aaplimg.com.https: Flags [.], ack 1, win 2048, options [nop,nop,TS val 3535738525 ecr 1365283841], length 0
	0x0000:  c4eb ff12 ee87 de0c 9867 5e15 86dd 6002  .........g^...`.
	0x0010:  2d22 0020 0640 2806 0230 2014 c466 e5ed  -"...@(..0...f..
	0x0020:  63f1 b813 486a 2620 0149 0a32 f000 0000  c...Hj&..I.2....
	0x0030:  0000 0000 0136 eda3 01bb 7649 7855 d493  .....6....vIxU..
	0x0040:  06ef 8010 0800 6a9e 0000 0101 080a d2bf  ......j.........
	0x0050:  169d 5160 9401                           ..Q`..
22:17:52.711775 IP6 2806:230:2014:c466:e5ed:63f1:b813:486a.60835 > usdal2-vip-fx-103.b.aaplimg.com.https: Flags [P.], seq 1:25, ack 1, win 2048, options [nop,nop,TS val 3535738525 ecr 1365283841], length 24
	0x0000:  c4eb ff12 ee87 de0c 9867 5e15 86dd 6002  .........g^...`.
	0x0010:  2d22 0038 0640 2806 0230 2014 c466 e5ed  -".8.@(..0...f..
	0x0020:  63f1 b813 486a 2620 0149 0a32 f000 0000  c...Hj&..I.2....
	0x0030:  0000 0000 0136 eda3 01bb 7649 7855 d493  .....6....vIxU..
	0x0040:  06ef 8018 0800 4473 0000 0101 080a d2bf  ......Ds........
	0x0050:  169d 5160 9401 1703 0300 1354 9140 d51a  ..Q`.......T.@..
	0x0060:  2bb5 c4c1 0713 bc79 0f4b 3e59 90b0       +......y.K>Y..
22:17:52.712146 IP6 2806:230:2014:c466:e5ed:63f1:b813:486a.60835 > usdal2-vip-fx-103.b.aaplimg.com.https: Flags [F.], seq 25, ack 1, win 2048, options [nop,nop,TS val 3535738526 ecr 1365283841], length 0
	0x0000:  c4eb ff12 ee87 de0c 9867 5e15 86dd 6002  .........g^...`.
	0x0010:  2d22 0020 0640 2806 0230 2014 c466 e5ed  -"...@(..0...f..
	0x0020:  63f1 b813 486a 2620 0149 0a32 f000 0000  c...Hj&..I.2....
	0x0030:  0000 0000 0136 eda3 01bb 7649 786d d493  .....6....vIxm..
	0x0040:  06ef 8011 0800 6a84 0000 0101 080a d2bf  ......j.........
	0x0050:  169e 5160 9401                           ..Q`..
22:17:52.734752 IP6 usdal2-vip-fx-103.b.aaplimg.com.https > 2806:230:2014:c466:e5ed:63f1:b813:486a.60835: Flags [R], seq 3566405359, win 0, length 0
	0x0000:  de0c 9867 5e15 c4eb ff12 ee87 86dd 600f  ...g^.........`.
	0x0010:  4cbd 0014 0639 2620 0149 0a32 f000 0000  L....9&..I.2....
	0x0020:  0000 0000 0136 2806 0230 2014 c466 e5ed  .....6(..0...f..
	0x0030:  63f1 b813 486a 01bb eda3 d493 06ef 0000  c...Hj..........
	0x0040:  0000 5004 0000 691f 0000                 ..P...i...
22:17:52.734755 IP6 usdal2-vip-fx-103.b.aaplimg.com.https > 2806:230:2014:c466:e5ed:63f1:b813:486a.60835: Flags [R], seq 3566405359, win 0, length 0
	0x0000:  de0c 9867 5e15 c4eb ff12 ee87 86dd 6007  ...g^.........`.
	0x0010:  b30a 0014 0639 2620 0149 0a32 f000 0000  .....9&..I.2....
	0x0020:  0000 0000 0136 2806 0230 2014 c466 e5ed  .....6(..0...f..
	0x0030:  63f1 b813 486a 01bb eda3 d493 06ef 0000  c...Hj..........
	0x0040:  0000 5004 0000 691f 0000                 ..P...i...
22:17:53.200188 IP6 rosx.local > rosx.local: ICMP6, neighbor solicitation, who has rosx.local, length 32
	0x0000:  c4eb ff12 ee87 de0c 9867 5e15 86dd 6000  .........g^...`.
	0x0010:  0000 0020 3aff fe80 0000 0000 0000 00b4  ....:...........
	0x0020:  4f25 1af9 a300 fe80 0000 0000 0000 0000  O%..............
	0x0030:  0000 0000 0001 8700 99c2 0000 0000 fe80  ................
	0x0040:  0000 0000 0000 0000 0000 0000 0001 0101  ................
	0x0050:  de0c 9867 5e15                           ...g^.
22:17:53.207336 IP6 rosx.local > rosx.local: ICMP6, neighbor advertisement, tgt is rosx.local, length 24
	0x0000:  de0c 9867 5e15 c4eb ff12 ee87 86dd 6000  ...g^.........`.
	0x0010:  0000 0018 3aff fe80 0000 0000 0000 0000  ....:...........
	0x0020:  0000 0000 0001 fe80 0000 0000 0000 00b4  ................
	0x0030:  4f25 1af9 a300 8800 ae54 c000 0000 fe80  O%.......T......
	0x0040:  0000 0000 0000 0000 0000 0000 0001       ..............
22:17:53.226224 IP6 rosx.local.65201 > rosx.local.domain: 15008+ PTR? 6.3.1.0.0.0.0.0.0.0.0.0.0.0.0.0.0.0.0.f.2.3.a.0.9.4.1.0.0.2.6.2.ip6.arpa. (90)
	0x0000:  c4eb ff12 ee87 de0c 9867 5e15 86dd 600c  .........g^...`.
	0x0010:  0700 0062 1140 fe80 0000 0000 0000 00b4  ...b.@..........
	0x0020:  4f25 1af9 a300 fe80 0000 0000 0000 0000  O%..............
	0x0030:  0000 0000 0001 feb1 0035 0062 47c0 3aa0  .........5.bG.:.
	0x0040:  0100 0001 0000 0000 0000 0136 0133 0131  ...........6.3.1
	0x0050:  0130 0130 0130 0130 0130 0130 0130 0130  .0.0.0.0.0.0.0.0
	0x0060:  0130 0130 0130 0130 0130 0130 0130 0130  .0.0.0.0.0.0.0.0
	0x0070:  0166 0132 0133 0161 0130 0139 0134 0131  .f.2.3.a.0.9.4.1
	0x0080:  0130 0130 0132 0136 0132 0369 7036 0461  .0.0.2.6.2.ip6.a
	0x0090:  7270 6100 000c 0001                      rpa.....
22:17:53.285926 IP6 rosx.local.domain > rosx.local.65201: 15008 1/0/0 PTR usdal2-vip-fx-103.b.aaplimg.com. (135)
	0x0000:  de0c 9867 5e15 c4eb ff12 ee87 86dd 6000  ...g^.........`.
	0x0010:  0000 008f 1140 fe80 0000 0000 0000 0000  .....@..........
	0x0020:  0000 0000 0001 fe80 0000 0000 0000 00b4  ................
	0x0030:  4f25 1af9 a300 0035 feb1 008f 7ede 3aa0  O%.....5....~.:.
	0x0040:  8180 0001 0001 0000 0000 0136 0133 0131  ...........6.3.1
	0x0050:  0130 0130 0130 0130 0130 0130 0130 0130  .0.0.0.0.0.0.0.0
	0x0060:  0130 0130 0130 0130 0130 0130 0130 0130  .0.0.0.0.0.0.0.0
	0x0070:  0166 0132 0133 0161 0130 0139 0134 0131  .f.2.3.a.0.9.4.1
	0x0080:  0130 0130 0132 0136 0132 0369 7036 0461  .0.0.2.6.2.ip6.a
	0x0090:  7270 6100 000c 0001 c00c 000c 0001 0000  rpa.............
	0x00a0:  0e10 0021 1175 7364 616c 322d 7669 702d  ...!.usdal2-vip-
	0x00b0:  6678 2d31 3033 0162 0761 6170 6c69 6d67  fx-103.b.aaplimg
	0x00c0:  0363 6f6d 00                             .com.
22:17:53.288254 IP6 rosx.local.58210 > rosx.local.domain: 64840+ PTR? a.6.8.4.3.1.8.b.1.f.3.6.d.e.5.e.6.6.4.c.4.1.0.2.0.3.2.0.6.0.8.2.ip6.arpa. (90)
	0x0000:  c4eb ff12 ee87 de0c 9867 5e15 86dd 6002  .........g^...`.
	0x0010:  0600 0062 1140 fe80 0000 0000 0000 00b4  ...b.@..........
	0x0020:  4f25 1af9 a300 fe80 0000 0000 0000 0000  O%..............
	0x0030:  0000 0000 0001 e362 0035 0062 9f31 fd48  .......b.5.b.1.H
	0x0040:  0100 0001 0000 0000 0000 0161 0136 0138  ...........a.6.8
	0x0050:  0134 0133 0131 0138 0162 0131 0166 0133  .4.3.1.8.b.1.f.3
	0x0060:  0136 0164 0165 0135 0165 0136 0136 0134  .6.d.e.5.e.6.6.4
	0x0070:  0163 0134 0131 0130 0132 0130 0133 0132  .c.4.1.0.2.0.3.2
	0x0080:  0130 0136 0130 0138 0132 0369 7036 0461  .0.6.0.8.2.ip6.a
	0x0090:  7270 6100 000c 0001                      rpa.....
22:17:53.298106 IP6 rosx.local.domain > rosx.local.58210: 64840 NXDomain 0/1/0 (150)
	0x0000:  de0c 9867 5e15 c4eb ff12 ee87 86dd 6000  ...g^.........`.
	0x0010:  0000 009e 1140 fe80 0000 0000 0000 0000  .....@..........
	0x0020:  0000 0000 0001 fe80 0000 0000 0000 00b4  ................
	0x0030:  4f25 1af9 a300 0035 e362 009e cf57 fd48  O%.....5.b...W.H
	0x0040:  8183 0001 0000 0001 0000 0161 0136 0138  ...........a.6.8
	0x0050:  0134 0133 0131 0138 0162 0131 0166 0133  .4.3.1.8.b.1.f.3
	0x0060:  0136 0164 0165 0135 0165 0136 0136 0134  .6.d.e.5.e.6.6.4
	0x0070:  0163 0134 0131 0130 0132 0130 0133 0132  .c.4.1.0.2.0.3.2
	0x0080:  0130 0136 0130 0138 0132 0369 7036 0461  .0.6.0.8.2.ip6.a
	0x0090:  7270 6100 000c 0001 c046 0006 0001 0000  rpa......F......
	0x00a0:  218d 0030 024e 5306 4c41 434e 4943 034e  !..0.NS.LACNIC.N
	0x00b0:  4554 000a 686f 7374 6d61 7374 6572 c069  ET..hostmaster.i
	0x00c0:  78b3 d9ee 0000 0708 0000 0384 000a 8c00  x...............
	0x00d0:  0000 2a30                                ..*0
22:17:53.572191 IP6 2806:230:2014:c466:e5ed:63f1:b813:486a.63923 > 2620:149:1361:1::4.https: quic, protected
	0x0000:  c4eb ff12 ee87 de0c 9867 5e15 86dd 6005  .........g^...`.
	0x0010:  c761 0025 1140 2806 0230 2014 c466 e5ed  .a.%.@(..0...f..
	0x0020:  63f1 b813 486a 2620 0149 1361 0001 0000  c...Hj&..I.a....
	0x0030:  0000 0000 0004 f9b3 01bb 0025 89d0 7d2a  ...........%..}*
	0x0040:  5147 b420 fdeb ccb2 bd0a f852 4616 4d6a  QG.........RF.Mj
	0x0050:  ad3d d749 645d 6121 ee71 18              .=.Id]a!.q.
22:17:53.625522 IP6 2620:149:1361:1::4.https > 2806:230:2014:c466:e5ed:63f1:b813:486a.63923: quic, protected
	0x0000:  de0c 9867 5e15 c4eb ff12 ee87 86dd 6000  ...g^.........`.
	0x0010:  0000 002a 112c 2620 0149 1361 0001 0000  ...*.,&..I.a....
	0x0020:  0000 0000 0004 2806 0230 2014 c466 e5ed  ......(..0...f..
	0x0030:  63f1 b813 486a 01bb f9b3 002a fba1 5f7a  c...Hj.....*.._z
	0x0040:  4e4c 1ad9 bdeb d889 dde6 d58d 072c 9fe4  NL...........,..
	0x0050:  ff56 23d9 4155 383c 58ba 9b0a 3e4a ec40  .V#.AU8<X...>J.@
22:17:53.836413 IP 192.168.1.11 > mdns.mcast.net: igmp v2 report mdns.mcast.net
	0x0000:  0100 5e00 00fb 56d6 58f2 5ebc 0800 4600  ..^...V.X.^...F.
	0x0010:  0020 6966 0000 0102 18c3 c0a8 010b e000  ..if............
	0x0020:  00fb 9404 0000 1600 0904 e000 00fb       ..............
22:17:54.041258 IP 192.168.1.11.mdns > mdns.mcast.net.mdns: 0 [3q] PTR (QU)? _companion-link._tcp.local. PTR (QU)? _rdlink._tcp.local. PTR (QU)? lb._dns-sd._udp.local. (80)
	0x0000:  0100 5e00 00fb 56d6 58f2 5ebc 0800 4500  ..^...V.X.^...E.
	0x0010:  006c 1ef8 0000 ff11 f9d9 c0a8 010b e000  .l..............
	0x0020:  00fb 14e9 14e9 0058 3d5a 0000 0000 0003  .......X=Z......
	0x0030:  0000 0000 0000 0f5f 636f 6d70 616e 696f  ......._companio
	0x0040:  6e2d 6c69 6e6b 045f 7463 7005 6c6f 6361  n-link._tcp.loca
	0x0050:  6c00 000c 8001 075f 7264 6c69 6e6b c01c  l......_rdlink..
	0x0060:  000c 8001 026c 6207 5f64 6e73 2d73 6404  .....lb._dns-sd.
	0x0070:  5f75 6470 c021 000c 8001                 _udp.!....
22:17:54.041261 IP6 fe80::1caa:143c:9607:911d.mdns > ff02::fb.mdns: 0 [3q] PTR (QU)? _companion-link._tcp.local. PTR (QU)? _rdlink._tcp.local. PTR (QU)? lb._dns-sd._udp.local. (80)
	0x0000:  3333 0000 00fb 56d6 58f2 5ebc 86dd 600e  33....V.X.^...`.
	0x0010:  0a00 0058 11ff fe80 0000 0000 0000 1caa  ...X............
	0x0020:  143c 9607 911d ff02 0000 0000 0000 0000  .<..............
	0x0030:  0000 0000 00fb 14e9 14e9 0058 897f 0000  ...........X....
	0x0040:  0000 0003 0000 0000 0000 0f5f 636f 6d70  ..........._comp
	0x0050:  616e 696f 6e2d 6c69 6e6b 045f 7463 7005  anion-link._tcp.
	0x0060:  6c6f 6361 6c00 000c 8001 075f 7264 6c69  local......_rdli
	0x0070:  6e6b c01c 000c 8001 026c 6207 5f64 6e73  nk.......lb._dns
	0x0080:  2d73 6404 5f75 6470 c021 000c 8001       -sd._udp.!....

